:020000040800F2
:10000000680F002049010008ED380008FF2A0008A9
:100010008D37000811050008654100080000000048
:100020000000000000000000000000007D3B000810
:100030007B05000800000000EF3800087F3B000847
:100040006301000863010008630100086301000800
:1000500063010008630100086301000863010008F0
:1000600063010008630100086301000863010008E0
:100070006301000815050008210500082D0500088A
:10008000390500084505000831040008630100082F
:100090006301000863010008630100087D05000892
:1000A00063010008630100086301000863010008A0
:1000B0006301000863010008630100086301000890
:1000C000630100086301000863010008B9390008F2
:1000D000E53900084D410008594100086301000856
:1000E0006301000863010008630100086301000860
:1000F0006301000863010008630100086301000850
:100100006301000863010008013C00086301000866
:1001100063010008630100080D3C0008193C000859
:10012000630100086301000863010008630100081F
:10013000DFF810D000F05AF90048004729510008B4
:10014000AFF30080680F002006488047064800474C
:10015000FEE7FEE7FEE7FEE7FEE7FEE7FEE7FEE777
:10016000FEE7FEE7FD3B000831010008202A04DB22
:10017000203A21FA02F00021704721FA02F3D04020
:10018000C2F12002914008431946704740EA01033A
:100190009B0703D009E008C9121F08C0042AFAD23D
:1001A00003E011F8013B00F8013B521EF9D2704701
:1001B000D2B201E000F8012B491EFBD270470022A9
:1001C000F6E710B513460A4604461946FFF7F0FF56
:1001D000204610BDF0B480EA0102D40F4200B2EB19
:1001E000410F02D20246084611464A0042D0C30DD2
:1001F000DDB2C1F3C752AD1A202D35DAC1F31601B5
:1002000041F4000204B15242C5F1200602FA06F19F
:100210002A411044B3EBD05F23D0C4B1012DA0EB31
:10022000C35009DCF0BC4FF0004202EAC352DBB21B
:1002300000F5000000F0ABB8400000F1807000EB6A
:10024000C350A0F1807040EAD170490009E049082C
:1002500041EAC071A0EBC35000F50000400800EB7C
:10026000C350F0BC00F08AB86142012202EB4101A8
:10027000001BF6E7F0BC704781F00041AAE780F070
:100280000040A7E780EA010210B502F000434000F9
:1002900022D04A001FD0010E01EB1261C0F35600BC
:1002A000C2F3560240F4000042F40002A0FB022018
:1002B00000047F39140400D0401C50EA124001D4DD
:1002C0004000491EC2B20C0604EBD010401C40088E
:1002D000802A02D003E0002010BD20F00100002998
:1002E00000DA0020184310BD96230022114600F0CA
:1002F0004EB820F00040C10DC0F3160040F40000DD
:100300007F2901DA00207047962903DCC1F19601AC
:10031000C84070479639884070472DE9F05F054620
:10032000002092469B4688460646814640241BE0B4
:100330002846414647462246FFF718FF53465A468D
:10034000C01A914110D311461846224600F060F8B9
:100350002D1A67EB01084F4622460120002100F0CC
:1003600057F817EB00094E41201EA4F10104DFDC11
:10037000484631462A464346BDE8F09F0029A8BFBB
:100380007047401C490008BF20F00100704710B4BE
:10039000B0FA80FC00FA0CF050EA010404BF10BC73
:1003A000704749B1CCF1200421FA04F411FA0CF1A0
:1003B00018BF012121430843A3EB0C01CB1D4FEAD9
:1003C00000614FEA102042BF002010BC704700EBD4
:1003D000C35010440029A4BF10BC7047401C490002
:1003E00008BF20F0010010BC70470000064C074D0C
:1003F00006E0E06840F0010394E8070098471034F5
:10040000AC42F6D3FFF798FECC100108EC100108BF
:10041000202A04DB203A00FA02F1002070479140C4
:10042000C2F1200320FA03F3194390407047000003
:10043000014800F096B900003000002070B5044675
:1004400000688168C943C90717D1816821F001019B
:10045000816000F04FFE05460AE000BF00F04AFE52
:10046000401B022804D920688068C043C00706D01A
:1004700020688068C043C007F0D0002070BDA06A2B
:1004800040F01000A062E06A40F00100E06201204C
:1004900070BD0000F8B5002604460096006881682B
:1004A000C943C9072DD0816841F001018160164818
:1004B00016490068B0FBF1F000E0401E00900028F3
:1004C000FBD100F017FE054616E000BF00F012FE5B
:1004D000401B022810D920688068C043C0070BD099
:1004E000A06A40F01000A062E06A40F00100E06203
:1004F00084F824600120F8BD20688068C043C007EC
:10050000E4D10020F8BD00001400002040420F009C
:10051000FEE70000014800F027BB000010010020AA
:10052000014800F021BB000054010020014800F008
:100530001BBB000098010020014800F015BB000023
:100540008C030020014800F00FBB0000D003002006
:1005500030B590F840500124AC40C56B6C60046825
:1005600063604368102B036803D099600068C26021
:1005700030BD9A600068C16030BD7047402000F017
:10058000A7BC72B6FEE70000F8B50025044600954A
:1005900090F8240001280BD0012084F82400204684
:1005A000FFF74CFF2046FFF775FF060002D050E032
:1005B0000220F8BDA06A20F4885040F00200A0623A
:1005C000022000F035FE25490968B1FBF0F040003B
:1005D00000E0401E00900028FBD12068816841F0B7
:1005E0000801816000F086FD074608E000F082FD0A
:1005F000C01B0A2803D920688068000715D420682A
:1006000080680007F2D42068816841F004018160AD
:1006100000F070FD074612E000F06CFDC01B0A28D8
:100620000DD920688068400709D5A06A20F0020033
:1006300040F01000A06284F824500120F8BD20682A
:1006400080684007E8D4A06A20F0020040F0010072
:10065000A06284F824503046F8BD00001400002049
:1006600070470000F8B50024009490F82420254637
:10067000012A12D0012280F824204A681F23072A69
:100680000DD20668776B521E02EB820293409F43A5
:100690000B6893401F43776319E00220F8BD06689A
:1006A0000D2A0AD2376BD21F02EB820293409F437E
:1006B0000B6893401F43376309E0F76A0D3A02EB7A
:1006C000820293409F430B6893401F43F7620A687E
:1006D000072306680A2A0AD3F7680A3A02EB42029D
:1006E00093409F438B6893401F43F76008E037694E
:1006F00002EB420293409F438B6893401F43376154
:100700000A68102A01D0112A20D1124B02689A429D
:1007100017D193681B0219D4936843F400039360C4
:100720000968102912D10C490C4A0968B1FBF2F191
:1007300001EB8101490000E0491E00910029FBD135
:1007400004E0816A41F020018162012480F8245094
:100750002046F8BD002401401400002040420F0054
:10076000704770B50446006806684568A90625D537
:10077000B10723D5A16AC90603D4A16A41F4007167
:10078000A1628168C1F34241072910D1217B71B96F
:10079000416821F020014160A06A20F48070A062CD
:1007A000A06AC00403D4A06A40F00100A062204601
:1007B000FFF7D6FF21686FF01200086028062ED5DB
:1007C00070072CD5A06AC00603D4A06A40F400507C
:1007D000A06220688168C1F30231072909D041680D
:1007E000490515D48168C1F34241072910D1217B05
:1007F00071B9416821F080014160A06A20F4805005
:10080000A062A06AC00503D4A06A40F00100A06203
:100810002046FFF725FF21686FF00C00086068068E
:100820000CD5F0070AD0A06A40F48030A0622046C0
:1008300000F096F821686FF00100086070BD0000BC
:100840002DE9F04104004FF000057FD0A06A00269A
:1008500028B9E66284F82460204600F083F8204638
:10086000FFF7ECFDA16AC90600D420B1A06A40F0F0
:100870001000A0626AE0A16A21F4885141F00201EF
:10088000A162334923688B42E16904D1B1F5402F5D
:1008900001D14FF40021277B4FF4807C41EA4702CD
:1008A00061680A43A168614508D0012906D000218A
:1008B00094F814E0BEF1010F02D00AE06146F7E7B8
:1008C000C7B1A76A47F02007A762E76A47F00107A8
:1008D000E7625F6827F469470F435F6023689968A0
:1008E0001C4F394011439960A16861450BD0012923
:1008F00009D00CE0DFF860E0A7690EEB47370F4343
:1009000047F40061E5E7218A0D05A5F5801521680A
:10091000CB6A23F470032B43CB62216889680F4BA9
:100920001940914208D1E662A16A21F0020141F02A
:100930000101A162BDE8F081A06A20F0020040F050
:100940001000A062E06A40F00100E0620120F1E7DF
:10095000003C0140FDF7E1FF00E0FFFFFE0E1FFF3E
:100960007047000010B586B00021009101910291FE
:10097000039100681A4988422FD11A48816941F4CD
:1009800000718161816901F400710491816941F014
:1009900010018161816901F010010491816941F0C8
:1009A000080181618069032400F0080004900F2091
:1009B000CDE9000469460C4800F096FA0220CDE922
:1009C00000046946094800F08FFA002211461220FF
:1009D00000F0FCFB122000F0EBFB06B010BD0000A5
:1009E000002401400010024000100140000C0140B2
:1009F00010B590F821100022022905D0042181634E
:100A000080F82020012010BD01680B6823F00E0340
:100A10000B6001680B6823F001030B6090F8403015
:100A2000C46B012101FA03F3636080F8211080F8A0
:100A30002020104610BD00002DE9F05F90F8211035
:100A40000024022903D004218163012485E0016888
:100A50000A6822F00E020A6001680A6822F00102A8
:100A60000A603F4E3E4FB215DFF8F4C0DFF8F09059
:100A7000DFF8ECA0DFF8E8B0DFF8E4E00168783FE9
:100A800013011502ACF1640CA9F15009AAF13C0A5A
:100A9000ABF1280BAEF1140E4FF48018B14227D9F8
:100AA000B9420ED0614512D049451DD0514518D0EC
:100AB000594518D0714501D1424615E0294EB14241
:100AC00001D1012210E0274E1436B14201D110228B
:100AD0000AE0244E2836B14206D0224A3C329142E6
:100AE00001D11A4600E02A461E49091F0A602BE080
:100AF000B94213D0614517D0494522D051451DD088
:100B000059451DD0714501D142461AE0B14202D18A
:100B10004FF0807215E0134EB14201D1012210E076
:100B2000104E1436B14201D110220AE00D4E283683
:100B3000B14206D00B4A3C32914201D11A4600E044
:100B40002A46074980394A60012180F82110002196
:100B500080F82010416B01B188472046BDE8F09F26
:100B600080000240080402402DE9F05FC16B0A6872
:100B700001680B68046C4FF0040808FA04F8844D0F
:100B8000844E854FDFF814C2DFF81492DFF814A208
:100B9000DFF814B2DFF814E218EA020F65D05FEA5A
:100BA000437862D50A68920603D40A6822F00402E8
:100BB0000A60DFF8F0814FF48062016808F11408E0
:100BC00013011402414524D9A9420DD0B1420FD0DE
:100BD000B9421AD0614515D0494515D0514501D1CA
:100BE000120312E0594501D104220EE0714501D1F2
:100BF00040220AE06D4D1435A94206D06B4A2832D6
:100C0000914201D11A4600E022466749091F0A6055
:100C100029E0A94213D0B14215D0B94220D0614594
:100C20001BD049451BD0514502D14FF4800217E03B
:100C3000414502D14FF0806212E0594501D10422B2
:100C40000EE0714501D140220AE0584D1435A94209
:100C500006D0564A2832914201D11A4600E0224677
:100C60004B4908394A60C16A71E04FF0020808FA3E
:100C700004F818EA020F70D05FEA83786DD50A682D
:100C8000920606D40A6822F00A020A60012180F85E
:100C90002110DFF810814FF40072016808F1140888
:100CA00013011402414524D9A9420DD0B1420FD0FD
:100CB000B9421AD0614515D0494515D0514501D1E9
:100CC000120312E0594501D102220EE0714501D113
:100CD00020220AE0354D1435A94206D0334A283285
:100CE000914201D11A4600E022462F49091F0A60AD
:100CF00029E0A94213D0B14215D0B94220D06145B4
:100D00001BD049451BD0514502D14FF4001217E0CA
:100D1000414502D14FF0007212E0594501D1022243
:100D20000EE0714501D120220AE0204D1435A94280
:100D300006D01E4A2832914201D11A4600E02246CE
:100D4000134908394A60002180F82010816A00297F
:100D50001CD0BDE8F05F0847FFE70825A540154215
:100D600014D01A0712D50A6822F00E020A6090F811
:100D70004020C36B012101FA02F25A60816380F8BE
:100D80002110002180F82010016BE0E7BDE8F09F02
:100D9000080002401C0002403000024044000240B3
:100DA000580002406C000240080402401C0402404B
:100DB00030B560B11A4B026814219A4209D2194B1E
:100DC0001344B3FBF1F18900016417490AE00120E3
:100DD00030BD134B5B421344B3FBF1F18900016456
:100DE0000F490839C163022180F82110136843F6C6
:100DF000F0718B43F0E901142143D0E902452C4303
:100E000021430469214344692143846921431943EF
:100E1000116000214163012242770177084630BD0D
:100E200008040240F8FFFDBF0000024070B5044610
:100E300090F82000002501280CD0012084F8200023
:100E400094F821600020012E06D084F820000225AD
:100E5000284670BD022070BD022684F82160A06380
:100E60002068066826F0010606602046FFF770FB42
:100E7000E06A00282068016802D041F00E0106E017
:100E800021F0040101602068016841F00A0101605D
:100E90002068016841F001010160D9E770B504469E
:100EA00000F028F90546601C02D00448007804448C
:100EB00000F020F9401BA042FAD370BD08000020CA
:100EC000402802D101490120087070472400002009
:100ED000044910B50A68024202D00860FFF7F0FF2B
:100EE00010BD0000140401402DE9F84FDFF8C8914F
:100EF0000024A9F1040B23460F2709F1040AABF1E2
:100F0000040ED1E00125A54006EA0502AA4276D1E9
:100F1000DFF8A8C14E68A6EB0C0866452BD00DDCA7
:100F2000032E34D005DC36B3012E19D0022E2FD17A
:100F30001BE0112E16D0122E2AD119E0B8F5881F09
:100F400019D006DCB8F5803F15D0B8F5801F1FD149
:100F500011E0B8F5001F0ED0B8F5041F18D10AE053
:100F6000CB6815E0CB681B1D12E0CB6808330FE09F
:100F7000CB680C330CE08B682BB1012B4FF00803CE
:100F800003D0456104E0042302E0056100E0002392
:100F9000FF2A01D8064601E000F104064FEA840565
:100FA00001D9A5F12005D6F8008007FA05FC28EA4A
:100FB0000C0803FA05F548EA0508C6F800804D68F4
:100FC000ED0070D53E4DAE6946F00106AE61AD69EB
:100FD00024F0030605F0010500953A4D06EB050CDB
:100FE000DCF80850A607360F07FA06F825EA0805C8
:100FF000DFF8D480404503D14FF0000825E052E0EF
:10100000DFF8C880404502D14FF001081DE0DFF84D
:10101000C080404502D14FF0020816E0DFF8B480EE
:10102000404502D14FF003080FE0DFF8AC804045A7
:1010300002D14FF0040808E0DFF8A080404502D15B
:101040004FF0050801E04FF0060808FA06F848EAF4
:101050000508CCF808804D68D9F80060ED024D46CF
:1010600001D5164300E096432E604D68DAF8006023
:10107000AD02554601D5164300E096432E604D68FB
:10108000DBF80060AD035D4601D5164300E09643F2
:101090002E604D68DEF80060ED03754601D51643FD
:1010A00000E096432E60641C0A681646E2407FF416
:1010B00029AFBDE8F88F00000804014000001110BE
:1010C000001002400000014000080140000C0140F7
:1010D000001001400014014000180140001C0140B4
:1010E0008068084000D0012070470AB10161704754
:1010F0000904FBE7014880687047000008000020F1
:10110000024881680278114481607047080000201D
:10111000074810B5016841F010010160032000F09C
:1011200075F80F2000F006F800F024F8002010BD3C
:101130000020024070B50D4D04464FF47A712878B6
:10114000B1FBF0F00A490968B1FBF0F000F04DFE88
:1011500048B9102C07D200222146501E00F036F864
:1011600000206C6070BD012070BD000008000020F0
:10117000140000200C4808B5816941F0010181612B
:10118000816901F001010091C16941F08051C161A3
:10119000C06900F0805000900448416821F0E0618F
:1011A00041F00071416008BD0010024000000140A4
:1011B000002809DB00F01F02012191404009800056
:1011C00000F1E020C0F8001170470000F0B40E4BB1
:1011D0001B680C46C3F30223C3F10705042D00D995
:1011E0000425191D072901D2002300E0DB1E01267A
:1011F00006FA05F1491E214099409E40761E164090
:101200003143F0BC02F0D4BF0CED00E0064900F021
:10121000070208684FF6FF03184040EA0220034A1D
:1012200010430860704700000CED00E00000FA0574
:1012300010B501460020284C04292FD00BDC0129D1
:1012400030D0022929D100F06BF96168C1F38131F6
:10125000491C49001FE0082920D010291DD16168D0
:101260002268D20119D51D48C1F38342C903805CAD
:101270000AD56168194AC1F34041921E515C184A6F
:10128000B2FBF1F1484301E0164948436168490265
:1012900003D440000321B0FBF1F010BDBDE81040C5
:1012A00000F04EB9226AC2F30121012903D192074D
:1012B00001D5C80310BD022905D1626A920702D583
:1012C00049F6404010BD0329FCD121688903F9D5B6
:1012D0004FF2244010BD0000001002406856000884
:1012E00000127A0000093D002DE9F8430546007818
:1012F000354CC00754D0E0690026C00008D4E0692E
:1013000040F08050E061E069012600F080500090DC
:101310002E480168C90512D40168804641F48071E5
:101320000160FFF7E7FE074605E000BFFFF7E2FEBA
:10133000C01B642823D8D8F80000C005F6D5206A61
:1013400010F4407021D0A98801F4407181421CD072
:10135000206A1F49012220F440700A6000220A60BE
:101360002062C00711D0FFF7C5FE074641F288385A
:1013700008E000BFFFF7BEFEC11B414502D90320B4
:10138000BDE8F883206A8007F4D5206A696820F4F4
:101390004070084320621EB1E06920F08050E06197
:1013A0002878800705D56068A96820F44040084384
:1013B00060602878C00605D56068696920F48000FF
:1013C000084360600020DBE700100240007000402E
:1013D000400442422DE9F0470F46050061D0434EDC
:1013E000306800F00700B84209D2306820F00700EA
:1013F00038433060306800F00700B84251D12868A7
:101400003B4C810712D5400703D5606840F4E0608B
:1014100060602878000703D5606840F46050606021
:101420006068A96820F0F000084360602878C00771
:1014300028D06868012810D02168022810D08907B8
:1014400000292EDA616821F0030101436160FFF792
:1014500051FE804641F288390DE021688903EFE7AB
:101460008901EDE7FFF746FEA0EB0801494502D9E7
:101470000320BDE8F0876068696800F00C00B0EBFD
:10148000810FEFD1306800F00700B8420BD9306807
:1014900020F0070038433060306800F00700B842A1
:1014A00001D00120E5E72878400705D56068E968A4
:1014B00020F4E060084360602878000706D5606883
:1014C000296920F4605040EAC100606000F038F8FB
:1014D0006168084AC1F30311515CC84006490860BD
:1014E00006480068FFF726FE0020C2E70020024001
:1014F0000010024078560008140000200C00002064
:101500000448054900684968044AC1F30221515C56
:10151000C8407047140000200010024088560008A0
:101520000448054900684968044AC1F3C221515C76
:10153000C840704714000020001002408856000880
:101540000E4A51680E4801F00C03042B11D0082BF1
:101550000FD10C48C1F38343C903C05C0AD551685D
:10156000084AC1F34041921E515C054A5043B0FB0A
:10157000F1F07047044948437047000000100240F2
:1015800000127A005656000800093D002DE9F84F78
:10159000040070D02078C04DC00749D06868C0F3FF
:1015A0008100012807D06868C0F38100022809D1B2
:1015B0006868C00306D52868800339D560680028AC
:1015C000E7D035E06068B0F5803F0BD010B1B0F5E2
:1015D000A02F11D0286820F480302860286820F4DB
:1015E000802002E0286840F480302860606890B174
:1015F000FFF780FD06460AE0286840F48020286056
:10160000F0E700BFFFF776FD801B642873D82868D9
:101610008003F7D50CE0FFF76DFD064605E000BF3F
:10162000FFF768FD801B6428F0D828688003F7D492
:1016300020789A4E80074FF001094FF0000839D505
:10164000686810F00C0F07D06868C0F381000228AA
:1016500009D16868C00306D42868800714D52069BA
:10166000012808D110E02069B0B1C6F80090FFF75A
:1016700041FD074605E00AE1FFF73CFDC01B0228DB
:10168000C4D828688007F7D52868616920F0F80079
:1016900040EAC10028600DE0C6F80080FFF72AFD8F
:1016A000074604E0FFF726FDC01B022823D8286860
:1016B0008007F7D4207800072CD57948A169D9B1E3
:1016C000C0F80090FFF716FD074604E0FFF712FD93
:1016D000C01B02280FD8686A8007F7D571484FF4FD
:1016E000FA510068B0FBF1F0009000BF0098411E75
:1016F0000091FAD20EE080E0C0F80080FFF7FAFC1B
:10170000074604E0FFF7F6FCC01B022875D8686A9C
:101710008007F7D42078400760D5E8690027C0002B
:1017200008D4E86940F08050E861E869012700F0DA
:10173000805000905C480168C90513D40168834655
:1017400041F480710160FFF7D5FC824606E000BFDE
:10175000FFF7D0FCA0EB0A0064284ED8DBF80000AD
:10176000C005F5D5E06801280AD008B1052813D0D6
:10177000286A20F001002862286A20F0040002E0B4
:10178000286A40F001002862E06841F2883B98B185
:10179000FFF7B0FC82460BE0286A40F004002862A4
:1017A000EEE700BFFFF7A6FCA0EB0A0159455AD8A7
:1017B000286A8007F6D50CE0FFF79CFC824605E01E
:1017C000FFF798FCA0EB0A0159454CD8286A80071E
:1017D000F6D41FB1E86920F08050E861E06988B371
:1017E0006968C1F38101022944D00228C6F86080EB
:1017F00004D0FFF77FFC044638E034E0FFF77AFCC2
:10180000074604E0FFF776FCC01B02282BD82868A7
:101810008001F7D4206AB0F5803F05D16868A168DF
:1018200020F4003008436860D4E90801084369687F
:1018300021F4741108436860C6F86090FFF75AFC01
:10184000044606E025E000BFFFF754FC001B022819
:1018500009D828688001F7D51BE000BFFFF74AFCD4
:10186000001B022802D90320BDE8F88F28688001F8
:10187000F4D40EE00128F7D06868226A00F48031C1
:10188000914204D1616A00F47010884201D00120B5
:10189000EAE70020E8E700000010024000004242B2
:1018A0008004424214000020007000407047000095
:1018B00038B50446006842688168C9434B0606D5BE
:1018C000CB0704D1D3435B0601D4216C05E08B0721
:1018D00008D4D3431B0605D4616C01B02046BDE893
:1018E000304008478B0601D54B0646D4D3439B06B0
:1018F00043D44B060AD494F85130032B3ED0636D89
:1019000043F004036365C36883680093890609D4C0
:10191000616D41F00101616581680091016821F00C
:1019200040010160606D002827D02068416821F0E7
:10193000E0014160012084F85100900722D0206826
:10194000416821F003014160104DE06C40B14563F6
:10195000E06CFFF771F818B1606D40F04000606511
:10196000A06C002809D04563A06CFFF765F800283B
:1019700003D0606D40F04000606538BDC16880688C
:10198000009038BD2046FFF791FF38BDF1390008BF
:1019900070B5040009D0606A002540B12561656119
:1019A000A56294F8510040B10CE0012070BD606860
:1019B000B0F5827FF4D0E561F2E784F8505020461C
:1019C00000F040F8022084F851002068016821F0FE
:1019D00040010160A088218900F4827001F4044173
:1019E0000843A18901F400610843217C01F0020150
:1019F0000843217D01F001010843218B01F40071AE
:101A00000843217F01F03801084394F8201001F0C9
:101A100080010843218D01F40051084321680860CA
:101A2000A069042101EA1040216848602068C1696A
:101A300021F40061C1616565012084F85100002036
:101A400070BD00002DE9F04186B00024009401949F
:101A50000294039406464A4D03684A480221032231
:101A600080274FF01008AB4230D1836943F4805394
:101A70008361836903F480530493836943F004030F
:101A800083618069039200F004000490A020CDE9F6
:101A9000000169463C48FFF727FA3D4D3B48C5E940
:101AA00002472C616C61AC61EC61C5E90008284615
:101AB000FFF77EF908B1FEF764FDB5640022114618
:101AC00023206E62FFF782FB232053E0314DAB42AF
:101AD00052D1C36943F48043C361C36903F48043B3
:101AE0000493836943F00803836180692A4D00F001
:101AF000080004904FF42040CDE9000103926946AC
:101B00002846FFF7F1F94FF48040CDE9000469461B
:101B100028460294FFF7E8F91D4D1C48443514305F
:101B2000C5E90004C5E902472C616C61AC61284637
:101B3000EC61FFF73DF908B1FEF723FDF5646E6235
:101B4000134D124888352830C5E902472C616C6175
:101B5000AC61EC61C5E900082846FFF729F908B136
:101B6000FEF70FFDB5640022114624206E62FFF7D8
:101B70002DFB2420FFF71CFB06B0BDE8F081000020
:101B800000300140001002400008014030000240D7
:101B90001001002000380040000C01402DE9F84FF2
:101BA000984616468A460446FFF7A4FA814694F8FA
:101BB000510001281ED1BAF1000F73D0002E71D050
:101BC00094F85000012815D0012784F850700320A4
:101BD00084F8510000256565C4F830A0A686E68625
:101BE000A563A587E58765642564A068B0F5004F07
:101BF00003D00CE00220BDE8F88F2068016821F0D6
:101C0000400101602068016841F480410160206862
:101C10000168490603D4016841F040010160E068B1
:101C2000B0F5006F606803D048B3012E27D047E0BD
:101C300008B1012E1FD1206B21680088C86006E022
:101C400020688168890709D5216B0988C160206BEC
:101C5000801C2063E08E401EE0860CE0FFF74AFA0D
:101C6000A0EB0901414503D3B8F1FF3F03D035E0B4
:101C7000B8F1000F32D0E08E0028E1D123E0206BD4
:101C800021680078087306E02068816889070AD512
:101C9000216B09780173206B401C2063E08E401E8D
:101CA000E0860DE02BE0FFF725FAA0EB09014145A6
:101CB00003D3B8F1FF3F03D010E0B8F1000F0DD00F
:101CC000E08E0028E0D14A464146204601F0E0FE81
:101CD00008B120206065A06830B109E084F8517037
:101CE00084F85050032086E72068C168806800901F
:101CF00084F8517004F8505F60680028F3D0012028
:101D000079E7000070B5044690F8510001281CD115
:101D1000C9B1C2B194F85000012816D0012084F84E
:101D20005000032084F85100002565652163A286D8
:101D3000E286A56365642564A587E587A068B0F59C
:101D4000004F04D00DE0012070BD022070BD20685E
:101D5000016821F0400101602068016841F4804180
:101D60000160A16C1748C862A16C17488862A16C19
:101D700016480863A06C4563E38E2268216B0C3221
:101D8000A06CFFF753F830B1606D40F01000606553
:101D900084F85050D7E720680168490603D40168E9
:101DA00041F04001016084F850502068416841F0E2
:101DB000200141602068416841F00201416000203B
:101DC00070BD0000233A00082D3A0008013A0008CF
:101DD00000680349884202D1024901200870704717
:101DE000003001401E000020704710B5401EB0F1C9
:101DF000807F01D3012010BD4FF0E02460610F21EE
:101E0000601702F0D5F90020A061072020610020B2
:101E100010BD70477047000070B590F83C20012A53
:101E20002CD0012480F83C40022280F83D20036839
:101E30005A689D6822F070060A6832435A60104B57
:101E400002689A420ED00F4B9A420BD0B2F1804FEB
:101E500008D00D4B9A4205D00C4B9A4202D00C4B45
:101E60009A4204D1496825F080031943916080F8B3
:101E70003D40002180F83C10084670BD022070BD36
:101E8000002C0140003401400004004000080040E4
:101E9000000C004010B5040003D094F83D0010B1D0
:101EA00007E0012010BD002084F83C00204600F02F
:101EB0001FF8022084F83D00211D206801F0B2FEC9
:101EC000012084F8460084F83E0084F83F0084F83E
:101ED000400084F8410084F8420084F8430084F80C
:101EE000440084F8450084F83D00002010BD000047
:101EF00008B5234A01682348914208D1C16941F0DD
:101F00000401C161C06900F00400009008BD1E4AD0
:101F100091420ED1C16941F00801C161C06900223E
:101F200000F00800009011463220FFF74FF93220F0
:101F300022E0164A91420ED1C16941F01001C161FF
:101F4000C069002200F01000009011463620FFF713
:101F50003DF9362010E00E4A9142D7D1C16941F0D7
:101F60002001C161C069002200F0200000901146EC
:101F70003720FFF72BF93720BDE80840FFF718B9E5
:101F80000008004000100240000C0040001000401B
:101F90000014004090F83D10012901D00120704745
:101FA000022180F83D100168CA6842F00102CA604F
:101FB00000680E4988420ED00D4988420BD0B0F11E
:101FC000804F08D00B49884205D00B49884202D087
:101FD0000A49884204D1816801F00701062903D02B
:101FE000016841F00101016000207047002C0140B0
:101FF000003401400004004000080040000C004094
:102000000168CA6822F00102CA6001680A6A41F2E6
:1020100011131A4207D10A6A9B101A4203D10A68A7
:1020200022F001020A60012180F83D100020704773
:1020300070B5044690F83C000025012817D0012611
:1020400084F83C60022084F83D002068826822F019
:10205000770222F47F4282600868502838D00DDC75
:1020600020284FD005DC90B3102811D14AE002207F
:1020700070BD302846D040280AD13BE060282FD0E0
:1020800070280DD0B0F5805F03D0B0F5005F12D09E
:10209000012584F83D60002084F83C00284670BD8E
:1020A000CB68D1E90121206801F017FE2068816822
:1020B00041F0770109E0CB68D1E90121206801F006
:1020C0000CFE2068816841F480418160E1E719E0FD
:1020D000CA684968206801F0D5FE5021206806E0F2
:1020E000CA684968206801F0DEFE6021206801F0BE
:1020F000FEFDCEE7CA684968206801F0C3FE4021B2
:102100002068F4E7226801461046F0E770472DE9A1
:10211000F04104460068C66805694FF00007A9074A
:1021200013D5B10711D5F91E016101202077206870
:1021300080698007204602D0FFF7E8FF04E000F046
:10214000A5F8204600F037F92777680716D57007FD
:1021500014D521686FF00400086102202077206800
:10216000806910F4407F204602D0FFF7CFFF04E0E3
:1021700000F08CF8204600F01EF92777280715D5C7
:10218000300713D521686FF008000861042020771C
:102190002068C0698007204602D0FFF7B7FF04E03F
:1021A00000F074F8204600F006F92777E80616D507
:1021B000F00614D521686FF0100008610820207720
:1021C0002068C06910F4407F204602D0FFF79EFFD0
:1021D00004E000F05BF8204600F0EDF82777E80710
:1021E00008D0F00706D021686FF001000861204692
:1021F00000F03CF9280608D5300606D521686FF0B6
:10220000800008612046FFF704FE680608D57006C6
:1022100006D521686FF040000861204600F0E8F91B
:10222000A8060AD5B00608D521686FF0200008611D
:102230002046BDE8F041FFF7EDBDBDE8F0810000AC
:1022400000B585B0002100910191029103910068D1
:102250000B49884212D10B48816941F00801816124
:102260008069694600F0080004904FF460700090A7
:102270000220019003900448FEF736FE05B000BD31
:102280000008004000100240000C0140704770B58B
:10229000044690F83C0000260D4601280FD001208E
:1022A00084F83C006AB1042A1DD0082A2FD00C2AD9
:1022B0003FD00126002084F83C00304670BD02204B
:1022C00070BD206801F01CFD2068816941F00801A3
:1022D00081612068816921F0040181612068816940
:1022E0002A69114311E0206801F03AFD20688169F4
:1022F00041F4006181612068816921F4806181611C
:10230000206881692A6941EA02218161D2E7206857
:1023100001F05CFD2068C16941F00801C1612068DD
:10232000C16921F00401C1612068C1692A691143B2
:1023300011E0206801F07EFD2068C16941F4006170
:10234000C1612068C16921F48061C1612068C169EF
:102350002A6941EA0221C161ACE710B5040003D04B
:1023600094F83D0010B107E0012010BD002084F872
:102370003C00204600F01EF8022084F83D00211D9C
:10238000206801F04FFC012084F8460084F83E00EC
:1023900084F83F0084F8400084F8410084F842004B
:1023A00084F8430084F8440084F8450084F83D0034
:1023B000002010BD7047704710B50446022249B195
:1023C00004290ED0082913D094F84100012816D012
:1023D000012010BD94F83E000128F9D184F83E2078
:1023E0000FE094F83F000128F2D184F83F2008E084
:1023F00094F840000128EBD184F8402001E084F8F3
:1024000041200122206801F05BFC13492068134A37
:10241000884201D0904203D1436C43F400434364AB
:10242000206888420DD090420BD0B0F1804F08D088
:102430000B49884205D00B49884202D00A4988429C
:1024400004D1816801F00701062903D0016841F039
:1024500001010160002010BD002C0140003401404A
:102460000004004000080040000C00402DE9F04747
:10247000544A0168002512680126534C91422ED11E
:1024800052490A793AB9A278521CD2B2A270052AEE
:1024900001D10E71A5704E494A78012A08D1E2781F
:1024A000521CD2B2E2701E2A02D1E5704D708E70BD
:1024B0000A783AB92279521CD2B22271642A01D127
:1024C00025710E70434991F86F2042B96279521C10
:1024D000D2B26271642A02D1657181F86F60394AA3
:1024E00001684832126891420AD13B498A783AB170
:1024F0000A78521CD2B20A70082A01D38D70CE70AD
:102500003049006890310968884228D12078DFF886
:10251000CCA0DFF8CC90012815D100220421504630
:10252000FEF7E3FD002208214F464846FEF7DDFD99
:10253000002210213846FEF7D8FD0022202138461F
:10254000FEF7D3FD2570DFF89C8098F80000012885
:1025500007D06078012802D1E088401CE080BDE807
:10256000F08721496670E08809888842F4D31F4FBC
:10257000387808B1002200E0012204215046FEF71D
:10258000B4FD387808B1002200E001220821484655
:10259000FEF7ABFD387808B1002200E001221021DF
:1025A0004846FEF7A2FD387808B1002200E001227B
:1025B00020214846FEF799FD267088F80050E580F6
:1025C0006570CCE724020020000000201E0A0020D5
:1025D00018000020F40A0020280A002000140140FE
:1025E000000C0140240000202600002028000020CC
:1025F0007047704770470000F8B5016804460868E6
:10260000CA684B6910F00F0F4FF0000559D003F066
:10261000010602F49077374365D0C10705D0D10594
:1026200003D5616C41F001016164410705D5D9070B
:1026300003D0616C41F002016164810705D5D907BF
:1026400003D0616C41F004016164010707D502F019
:102650002001314303D0616C41F008016164616C79
:1026600000293AD0800604D5900602D5204601F014
:102670005BFC20684069616CC0F38010090700D4DE
:1026800060B3204601F029FC20684069400621D54E
:102690002068143050E8001F21F0400140E800128B
:1026A000002AF5D1E06BA8B16D494163E06BFEF7FC
:1026B000C3F9002811D0E06B416B01B0BDE8F040D8
:1026C000084783060FD593060DD52046BDE8F84090
:1026D00001F02ABC2046FFF78DFFF8BD2046FFF72A
:1026E00089FF6564F8BD266B2023012E7CD1C606C8
:1026F0007AD5D60678D508684868009048694FF0C2
:102700000206400640D5E16B086840680004000CF2
:10271000E8D0A28D8242E5D9E085886920282DD0B5
:1027200020680C3050E8001F21F4807140E800124E
:10273000002AF5D12068143050E8001F21F0010173
:1027400040E80012002AF5D12068143050E8001F3C
:1027500021F0400140E80012002AF5D184F842300F
:10276000256320680C3050E8001F21F0100140E87C
:102770000012002AF5D1E06BFEF73AF96663A08DEE
:10278000E18D401A81B22AE0A08DE18D401A81B21C
:10279000E08D0028A6D00029A4D022680C3252E88F
:1027A000000F20F4907042E80007002FF5D1206858
:1027B000143050E8002F22F0010240E80027002FDB
:1027C000F5D184F84230256320680C3050E8002FA2
:1027D00022F0100240E80023002BF5D1666320466A
:1027E000FFF707FFF8BDFFE705062BD5150629D52E
:1027F00094F841002128F5D1A068B0F5805F01D19F
:102800002069B0B1206A411C2162216800784860CB
:10281000E08C401E0004000CE084E3D12068C16815
:1028200021F08001C1602068C16841F04001C160B1
:10283000D8E7206A0088C0F308004860206A801C3E
:102840002062E5E74006CDD55006CBD5CA682046C4
:1028500022F04002CA6084F8413000F04FF9C1E72D
:10286000CB3E000870B5040004D094F84100002568
:1028700010B106E0012070BD84F84050204600F001
:1028800023F8242084F841002068C16821F4005115
:10289000C160204601F0AAFB2068016921F4904143
:1028A00001612068416921F02A0141612068C16805
:1028B00041F40051C1606564202084F8410084F82F
:1028C00042006563002070BDF0B585B0002400941F
:1028D0000194029403940646414F03684148022143
:1028E0000322414DBB4226D1836943F48043836177
:1028F000836903F480430493836943F00403836191
:102900008069039200F0040004900802CDE9000100
:1029100069462846FEF7E8FA2815CDE9000469461D
:1029200028460294FEF7E0FA002211462520FEF721
:102930004DFC252050E02D4FBB424FD1C36943F4DD
:102940000033C361C36903F400330493836943F024
:10295000040383618069039200F004000490042062
:10296000CDE9000169462846FEF7BEFA0820CDE908
:102970000004694628460294FEF7B6FA1D4D1C482D
:102980008027C5E90004C5E902472C616C61AC6190
:102990002846EC61FEF70CFA08B1FDF7F2FDF5638D
:1029A0006E62144D12484435143001C5102091C593
:1029B000104845F8104944306C61AC61EC61FEF799
:1029C000F7F908B1FDF7DDFDB563002211462620B9
:1029D0006E62FEF7FBFB2620FEF7EAFB05B0F0BDBA
:1029E000003801400010024000080140004400404F
:1029F0006C0002408C03002090F84230202B01D064
:102A00000220704721B11AB10023036301F04ABBD1
:102A10000120704700680E49884218D10D48C178DE
:102A2000012914D00C49096849684378021D99545A
:102A300041780023491CC9B241700370012901D1BA
:102A400001238370114401220348FFF7D5BF70476B
:102A500000440040280A0020440300202DE9F843E8
:102A6000044690F84100984616460D46202802D0AC
:102A70000220BDE8F88385B17EB10020606421208A
:102A800084F84100FEF736FBA6848146E684A06800
:102A90002027B0F5805F02D003E00120E9E720693C
:102AA00010B12E4600250EE000260CE080212046C5
:102AB00001F013FBA8B9C6B116F8010B21684860F4
:102AC000E08C401EE084E08C4B464FF00002CDF8D5
:102AD00000800028EAD14FF04001204601F0FDFAC5
:102AE00040B184F841700320C3E735F8020BC0F30E
:102AF0000800E3E784F841700020BAE77047FEE77A
:102B00002DE9F04104461D4616460F462A2000F0E6
:102B100045FB204600F05EFB304600F05BFB2B20BF
:102B200000F03CFB384600F055FB284600F052FB15
:102B3000BDE8F0412C2000F031BB000070B5040A64
:102B4000C5B20021EF2340F23F120846FFF7D8FF3D
:102B50000E4900204FF4407201F8104001EB400391
:102B6000401C80B25D709042F6D30122402108489B
:102B7000FEF7BBFA00244FF4C0652946034800F075
:102B8000ABF9641CA4B2642CF7D370BD1D04002003
:102B9000000801402DE9FE4F4FF00008141A474687
:102BA000454699421FD1FFF7ABFF0C980C9A010ADA
:102BB0003148D2B206E000BF00F8151000EB450323
:102BC0006D1C5A70AC42F7D8012240212B48FEF709
:102BD0008CFA4FF6FF7000EA440103B02648BDE8C6
:102BE000F04F00F079B9CDE900105E1A4FF0FF30D8
:102BF000002C02DD4FF0010102E003D14FF0000193
:102C00008B4602E08346C4F10004002E02DD4FF043
:102C1000010002E003D14FF00000824602E082464C
:102C2000C6F10006B44201DD254600E03546681CC9
:102C30004FF0000902901AE000980C9A81B20198B6
:102C400080B200F01DF8A0443744A84505DD019985
:102C5000A8EB050801EB0B000190AF4203DD0098E3
:102C60007F1B5044009009F101001FFA80F902997E
:102C70008945E1DDBDE8FE8F1D040020000801400C
:102C800010B514460B460246FFF73AFF2046BDE852
:102C9000104000F09FBA00002DE9F047141A5F1AA7
:102CA000641C7F1C7C43002564004FF4C068089EB0
:102CB000444502D9A4F5C0654446FFF721FF370A11
:102CC000DFF84C90DFF84CA0F6B20020494606E051
:102CD00001F8107001EB4002401C567080B2B0EB5E
:102CE000540FF5D3012240215046FEF7FEF9A1B260
:102CF000074800F0F1F8002D07D0454502D9A5F5A9
:102D0000C065E2E72C460025DFE7BDE8F08700005C
:102D10001D0400200008014010B56A4C002210215B
:102D20002046FEF7E2F90C20FEF7B8F80122102148
:102D30002046FEF7DAF90C20FEF7B0F8112000F07B
:102D40002DFA0C20FEF7AAF8362000F027FAA02072
:102D500000F032FA3A2000F021FA652000F02CFA57
:102D6000B22000F01BFA0C2000F026FA0C2000F034
:102D700023FA002000F020FA332000F01DFA33205F
:102D800000F01AFAB72000F009FA722000F014FAE5
:102D9000BB2000F003FA3D2000F00EFAC02000F046
:102DA000FDF92C2000F008FAC22000F0F7F901200C
:102DB00000F002FAC32000F0F1F9192000F0FCF94C
:102DC000C42000F0EBF9202000F0F6F9C62000F056
:102DD000E5F90F2000F0F0F9D02000F0DFF9A42091
:102DE00000F0EAF9A12000F0E7F9E02000F0D6F9C0
:102DF000D02000F0E1F9042000F0DEF90D2000F011
:102E0000DBF9112000F0D8F9132000F0D5F92B20C0
:102E100000F0D2F93F2000F0CFF9542000F0CCF9B7
:102E20004C2000F0C9F9182000F0C6F90D2000F080
:102E3000C3F90B2000F0C0F91F2000F0BDF92320DA
:102E400000F0BAF9E12000F0A9F9D02000F0B4F9BF
:102E5000042000F0B1F90C2000F0AEF9112000F0D0
:102E6000ABF9132000F0A8F92C2000F0A5F93F20C1
:102E700000F0A2F9442000F09FF9512000F09CF9E5
:102E80002F2000F099F91F2000F096F91F2000F084
:102E900093F9202000F090F9232000F08DF92120F3
:102EA00000F07CF9292000F079F90021EF2340F2AD
:102EB0003F120846FFF724FEBDE810404FF6FF70B2
:102EC000FFF73CBE001001400246012000E05043E5
:102ED000491EC9B2FBD2704700F074BD00F07ABD44
:102EE0002DE9F84F203AD6B21C46DDE90A984FF496
:102EF000A072A2EB5402824254D3C4F1F0028A427F
:102F000050DB0A19521E93B200EB5402521E92B2C9
:102F1000FFF7F6FD102C17D0202C15D00C2C43D029
:102F2000182C3FD1364906EB46004FF0300B0024F9
:102F300001EB001AE0071AF8046051D004270025BD
:102F400030064FD548464EE0600700D0012000EB28
:102F5000D4006108484300F0FF0A2A48002500EB2E
:102F6000061B00F5BE5000EBC610009018E0102CB8
:102F700008D0202C16D10098465D0027300604D5D5
:102F8000484603E01BF80560F7E7404600F022F9E9
:102F900070067F1C060EFFB2082FEFD36D1CEDB23A
:102FA0005545E4D3BDE8F88F174806EB46014FF0CE
:102FB0000C0A002400EB810700253E5D300601D598
:102FC000484600E0404600F005F970066D1C060E0C
:102FD000EDB2062DF2D3641CE4B25445ECD3E1E724
:102FE0000827ACE7404600F0F5F870066D1C060EA9
:102FF000EDB2BD42A4D3641CE4B25C459AD3D1E7E0
:103000006ACE00087AC8000806C400082DE9FF4F00
:1030100083B00026DDE911A9DDF840B01D468046E9
:1030200034464FEA5B0726E0281B401EC1B20A2047
:10303000FFF74AFF0599B1FBF0F00A21B0FBF1F26E
:1030400001FB120026B9691E8C4201DA38B1012653
:103050003030C2B207FB048080B25B4604E007FB5D
:10306000048080B25B462022CDE900A90499FFF7D5
:1030700037FF641CE4B2AC42D6D307B0BDE8F08F92
:103080002DE9FC5F044600F0FF0910190D46DDE94B
:103090000CA61FFA80F8581987B2DDF83CB013E08F
:1030A000444503D305EB0A004C4685B2BD4210D21D
:1030B0000E99CDE9001B534629462046FFF710FF25
:1030C00004EB5A0084B2761C3278A2F120005E280C
:1030D000E6D9BDE8FC9F000070B50244DDE9045468
:1030E000B2F5A07F15D80B44F02B12D85B1E521EF0
:1030F0009BB292B2FFF704FD012240210548FDF783
:10310000F4FF21462846FFF7E9FEBDE8704002F0D3
:1031100033BA70BD000801402DE9F04F87B08246F8
:10312000DDE911650124934689460020DDF84080E1
:1031300005E000BF04EB84014C00401CC0B2984283
:10314000F8D31046FDF7D5F807462046FDF7CCF832
:1031500004463846FDF7C8F85946FDF790F8214671
:10316000FDF790F8FDF7C5F803463A4609A104A813
:1031700001F00AF804A9CDF800800395CDE9011605
:103180000C23282249465046FFF77AFF07B0BDE8D6
:10319000F08F0000256C642E256C640001B50022C0
:1031A00040210448FDF7A1FF01216846FFF794FE86
:1031B00008BD00000008014001B50122402104487B
:1031C000FDF793FF01216846FFF786FE08BD00006A
:1031D0000008014008B500210091010A8DF8001097
:1031E0008DF80100012240210348FDF77EFF0221F6
:1031F0006846FFF771FE08BD0008014030B5034680
:103200004FF6FF704AF201041A7850400022C507B9
:1032100002D084EA500000E04008521CD2B2082AD2
:10322000F5D3491E5B1C11F0FF01EDD130BD00004C
:10323000FEB50025274800950195254902950160B6
:1032400089158160057301240475052606614FF414
:1032500060214560C0E90641FDF7F2FA08B1FDF7CB
:1032600090F909208DE8310069461A48FDF7FAF90E
:1032700008B1FDF786F90A20009002200190694606
:103280001448FDF7EFF908B1FDF77BF90B2000902A
:103290000320019069460F48FDF7E4F908B1FDF7F6
:1032A00070F90C2000900420019069460948FDF750
:1032B000D9F908B1FDF765F90D20CDE90006694699
:1032C0000448FDF7CFF9002801D0FDF75AF9FEBDFB
:1032D0000024014030000020194808B5416941F040
:1032E000010141614069002200F001000090114697
:1032F0000D20FDF76BFF0D20FDF75AFF0022114650
:103300000E20FDF763FF0E20FDF752FF002211464D
:103310000F20FDF75BFF0F20FDF74AFF002211464B
:103320001020FDF753FF1020FDF742FF0022114649
:103330001120FDF74BFFBDE808401120FDF738BF15
:10334000001002402DE9F04F85B00024524800944F
:10335000019402940394816941F0100181618169B3
:1033600001F010010491816941F0200181618169BE
:1033700001F020010491816941F0040181618169BA
:1033800001F004010491816941F0080181618069C3
:10339000002200F00800049049F642113F48FDF772
:1033A000A4FE41F61049002249463D48FDF79DFE26
:1033B00040F63C4A002251463A48FDF796FE4FF44B
:1033C000805B012259463748FDF78FFE0022042119
:1033D0003548FDF78AFE49F6021001250226CDE99F
:1033E0000005CDE9024669462C48FDF77DFD102019
:1033F000CDE90004694629480294FDF775FD402790
:103400004FF00308CDF80C800097CDE901546946D0
:103410002248FDF769FDCDF800900396CDE90154EF
:1034200069461F48FDF760FD4FF47870CDE9000450
:1034300069461B480294FDF757FDCDF800A003969E
:10344000CDE9015469461748FDF74EFDCDF800B0AF
:10345000CDF80C80CDE9015469461248FDF744FDD2
:103460000420CDE90005CDE9024669460E48FDF786
:103470003BFD0E480097CDE9010469460948FDF778
:1034800033FD002211461720FDF7A0FE1720FDF79F
:103490008FFE05B0BDE8F08F00100240000801402B
:1034A00000100140000C01400014014000002110F8
:1034B000104810B50E4901604FF48271416000213F
:1034C00002228160C0E903121202C0E9051208223B
:1034D000C0E90721416281620A21C162FEF758FA00
:1034E000002803D0BDE81040FDF74BB810BD000028
:1034F00000300140600000200F4810B50D49016008
:103500004FF48271416000218160C1604FF400720C
:103510000161C0E90512C1610162416281620A2153
:10352000C162FEF735FA002803D0BDE81040FDF770
:1035300028B810BD00380040B800002030B58DB06C
:1035400000250795089509950A950B951C21684655
:103550000C95FCF734FE344C324820604720C4E917
:10356000010540F2E730C4E903052046A561FEF7F6
:1035700091FC08B1FDF705F84FF48050079007A9BA
:103580002948FEF755FD08B1FCF7FBFF2648FEF77A
:10359000E4FE08B1FCF7F5FF0B950BA922480C954A
:1035A000FEF73AFC08B1FCF7ECFF6020CDE900051E
:1035B0000295042269461C480495FEF768FE08B18E
:1035C000FCF7DFFF2068816921F400618161082236
:1035D00069461548FEF75BFE08B1FCF7D2FF20688C
:1035E000C16921F00801C1610C2269460E48FEF74D
:1035F0004EFE08B1FCF7C5FF2068C16921F40061E7
:10360000C16104210848FEF7D7FE08210648FEF7ED
:10361000D3FE0C210448FEF7CFFE0348FEF710FE50
:103620000DB030BD00080040DC01002010B586B0B0
:1036300000241748009401940294039404941349BD
:10364000059401604721C0E9011442F20F71C0E9FD
:1036500003148461FEF71EFC08B1FCF792FF4FF4DF
:103660008050009069460A48FEF7E2FC08B1FCF77A
:1036700088FF049404A906480594FEF7CDFB0028B2
:1036800001D0FCF77EFF06B010BD0000000C00402A
:10369000240200201CB500240E4800940C4901941B
:1036A00001604721C0E9011440F2E7318461C16043
:1036B000FEF7F0FB08B1FCF764FF0094694605488B
:1036C0000194FEF7A9FB002801D0FCF75AFF1CBDAE
:1036D000001000406C0200201CB500240E4800942D
:1036E0000C49019401604721C0E90114092184615A
:1036F000C160FEF7CFFB08B1FCF743FF00946946B9
:1037000005480194FEF788FB002801D0FCF739FF3B
:103710001CBD000000140040B40200200C4810B58D
:103720000A4901604FF4E1314160002181600C22BF
:10373000C160C0E904128161C161FFF793F80028FC
:1037400003D0BDE81040FCF71CBF10BD003801409D
:10375000FC0200200C4810B50A4901604FF4E13129
:103760004160002181600C22C160C0E904128161C6
:10377000C161FFF777F8002803D0BDE81040FCF7DF
:1037800000BF10BD0044004044030020FEE70000DD
:1037900070B5134CE078012820D10025E5706078E1
:1037A000801EC1B2201DFFF729FD6278A11C1144C3
:1037B000098849BA884211D1207935280ED109A04B
:1037C00000F0D2FC6079032802D0042805D102E081
:1037D00000F010F801E000F04FF8657070BD0000D7
:1037E000280A00206172726976652068657265201A
:1037F0000D0A000070B503221C4C1D481D49002312
:10380000052B2CD2DFE803F0030D121C2600A518AF
:103810006D7980F8695005F00F068E702D090D71D5
:103820001DE0A5186D7980F86A5018E0A5186D792B
:1038300080F86B5005F001060E706D08CD700EE03B
:10384000A5186E7980F86C602D7980F86D504E71F6
:103850008D7104E0A5186D7980F86E50CD71921CC1
:103860005B1C9BB2D2B2052BCAD370BD280A0020C4
:10387000F40A00201404002070B5032416A000F000
:1038800073FC184A1848002105291DD2DFE801F011
:10389000030B1C10180013195D7980F860501B7918
:1038A00080F8613010E013195B7980F862300BE02A
:1038B00013195D7980F866501B7980F8673003E052
:1038C00013195B7980F86830A41C491C89B2E4B2F2
:1038D0000529D9D370BD00006765742068657265DD
:1038E000200D0A00280A0020F40A0020FEE7704795
:1038F0002DE9FF4F89B0914683464FF0080A002614
:10390000204806EB061199F8002010F81130934278
:1039100030D100EB410199F801004A78824229D167
:1039200020226846891CFCF731FC0024684600EB25
:1039300044001DF814104FF6FF72477802EA012187
:103940000F4300250BEB0408C5F10F0027FA00F028
:10395000C00707D00A981FFA88F1284480B2169A47
:10396000FFF78EF96D1CEDB2102DEDD3641CE4B29F
:10397000102CDBD3761CB6B25645C1D30DB0BDE8D2
:10398000F08F0000BA0F01082DE9F843984615465C
:103990000E460446089F09E043462A462146304623
:1039A0000097FFF7A5FF1034A4B2AD1C28780028BB
:1039B000F2D1BDE8F88300000148FDF779BF0000AF
:1039C000600000200A460146FF230148FEF7E6B8E2
:1039D000600000200A4601460148FEF793B9000046
:1039E000600000200148FDF763BF0000B800002020
:1039F00010B5406A0021C187C186FDF757FF10BD91
:103A000010B5406A01684A6822F003024A60416DBD
:103A100041F010014165012180F85110FDF746FF8A
:103A200010BD10B5406AFEF7DFF910BD38B5054688
:103A3000446AFDF75FFB024628680068800623D4CD
:103A40002068416821F0200141602068416821F030
:103A5000020141606421204600F01AF818B1606D3F
:103A600040F020006065A068002118B92068C26895
:103A700080680090E186012084F85100606D18B1E3
:103A80002046FDF713FF38BD2046FEF7A1F938BDEB
:103A9000F8B515460E460B46009204460122022157
:103AA00000F010F840B933460022802120460095EE
:103AB00000F008F8002804D0606D40F02000606538
:103AC0000320F8BD2DE9F8431E469146884604467A
:103AD000089DFDF70FFB401B351AFDF70BFB074652
:103AE00025480068C0F3CB30684338E0701C37D0FD
:103AF000FDF700FBC01BA84203D215B1009860B3CC
:103B00002CE02068416821F0E00141606068B0F578
:103B1000827F0BD1A068B0F5004F02D0B0F5806F66
:103B200004D12068016821F040010160A06AB0F56D
:103B3000005F09D12068016821F40051016020680C
:103B4000016841F400510160012084F85100002017
:103B500084F850000320BDE8F8830025401E009043
:103B60002068816838EA010004D000214945BDD1B0
:103B70000020F0E70121F9E7140000207047FDF76D
:103B8000BFBA30B595B028216846FCF718FB142160
:103B90000AA8FCF714FB18210FA8FCF710FB012161
:103BA0000804CDE900100025029502240491CDE916
:103BB00007404FF4E01009906846FDF7E7FC08B1B4
:103BC00072B6FEE70AA90F2081E831004FF4806049
:103BD000CDE90D0502210AA8FDF7FCFB08B172B67C
:103BE000FEE74FF4004011900F940FA8FDF77CFB07
:103BF000002801D072B6FEE715B030BD7047000056
:103C00000148FEF784BA0000240200200148FEF7B4
:103C10007EBA00006C0200200148FEF778BA00006E
:103C2000B4020020F0B50268204C214D214E224FF5
:103C3000224B4FF0804CA04209D0984207D06045FB
:103C400005D0A84203D0B04201D0B84204D122F03E
:103C5000700E4A6842EA0E02A04209D0984207D08C
:103C6000604505D0A84203D0B04201D0B84203D18C
:103C700022F44075CA682A434D6922F080022A4323
:103C800002608A68C2620A688262A04201D09842D9
:103C900001D109690163012141610169C90703D0AB
:103CA000016921F001010161F0BD0000002C01401B
:103CB0000004004000080040000C004000340140B7
:103CC00010B501F01F030121046A99408C4304627E
:103CD000016A9A401143016210BD10B5846842EA3E
:103CE000032224F47F440A432243826010BD826889
:103CF00022F070020A4342F0070181607047000021
:103D0000F0B5036A026A22F0010202624268846925
:103D1000124E24F073050C682C4323F002058B68C7
:103D20002B430D4DA84201D0B04205D123F0080726
:103D3000CB683B4323F00403A84201D0B04205D135
:103D40004D6922F4407215438A692A4342608461B6
:103D5000496841630362F0BD002C0140003401401A
:103D6000F0B5026A036A23F01003036243688469B2
:103D70000D6824F4E64444EA05248D6822F020020C
:103D800042EA05120F4D104EA84201D0B04206D1B2
:103D9000CF6822F0800242EA071222F04002A842D5
:103DA00001D0B04207D14D6923F4406343EA850353
:103DB0008D6943EA850343608461496881630262D7
:103DC000F0BD0000002C014000340140F0B5026A53
:103DD000036A23F4807303624368C46922F40072A7
:103DE00024F073050C68124E2C438D6842EA0522BC
:103DF0000E4DA84201D0B04206D1CF6822F4006235
:103E000042EA072222F48062A84201D0B04207D1E0
:103E10004D6923F4405343EA05138D6943EA0513C2
:103E20004360C4614968C1630262F0BD002C014077
:103E30000034014030B5046A026A22F48052026202
:103E40004268C3690D6823F4E64343EA05238D689D
:103E500024F4005444EA0534084DA84202D0084D29
:103E6000A84204D14D6922F4804242EA85124260A0
:103E7000C36149680164046230BD0000002C014048
:103E80000034014010B5036A046A24F0010404629E
:103E9000846924F0F00444EA021423F00A020A437D
:103EA0008461026210BD10B5036A046A24F0100434
:103EB0000462846923F0A00324F4704444EA0232CB
:103EC00043EA01118261016210BD10B5406A002110
:103ED000C185C184FEF78EFB10BD01680C3151E82D
:103EE000002F22F4907241E80023002BF5D10168E5
:103EF000143151E8002F22F0010241E80023002B89
:103F0000F5D1016B012909D101680C3151E8002F6D
:103F100022F0100241E80023002BF5D1202180F887
:103F2000421000210163704708B590F84210222921
:103F300001D0022008BD82684FF480539A4201D11B
:103F4000016921B1816A9A421BD04AB10AE0026834
:103F5000816A5268C2F308020A80816A891C08E0FB
:103F6000026972B10268526802F07F020A70816AC7
:103F7000491C8162C18D491E0904090CC18503D009
:103F80001BE002685268F1E70168CA6822F020026B
:103F9000CA600168CA6822F48072CA6001684A690E
:103FA00022F001024A61202180F842100021416381
:103FB000026B012A03D0FEF72DFD002008BD01632E
:103FC00001680C3151E8002F22F0100241E8002373
:103FD000002BF5D101680A68D20602D50A68496843
:103FE0000091818DFEF705FBE7E7000070B5044600
:103FF00000680169E26821F44051114301612169BF
:10400000A0680843616908432168CA6841F20C63EB
:104010009A430243CA6020684169A26921F4407151
:10402000114341611E492068884202D1FDF778FAA8
:1040300001E0FDF765FA00EBC00101EB00126068DA
:1040400064218000B2FBF0F3B3FBF1F36FF01806CC
:104050007343B2FBF0F5B2FBF0F605EB83053223B8
:1040600003EB0515B5FBF1F5B6FBF1F605F0F00530
:1040700005EB0615B2FBF0F6B2FBF0F0B0FBF1F089
:104080006FF01802504306EB800003EB0010B0FB0A
:10409000F1F0216800F00F002844886070BD000036
:1040A0000038014081628285C2850021416422215D
:1040B00080F84210016921B10168CA6842F4807237
:1040C000CA6001684A6942F001024A610068C16839
:1040D00041F02001C160002070472DE9F843984667
:1040E00017460D460446089E24E0701C22D0FDF7BA
:1040F00001F8A0EB0800B0421AD8CEB12068C16820
:10410000490717D5802D15D0402D13D00168C9431C
:1041100009070FD401680025406800902046FFF78A
:10412000DCFE0820606484F840500120BDE8F8837C
:104130000320FBE72068006835EA000004D0002077
:10414000B842D2D00020F1E70120F9E70148FEF79C
:1041500053BA0000FC0200200148FEF74DBA0000EF
:1041600044030020FEE770470FB4054B10B503A9C8
:10417000044A029800F03CF810BC5DF814FB000003
:10418000054500082C0000200FB4084B10B504A909
:1041900002AA039800F02CF8044602A9002000F0BF
:1041A0003DF9204610BC5DF814FB00001D440008DA
:1041B0000907090E002804DB00F1E02080F8001454
:1041C000704700F00F0000F1E02080F8141D7047E8
:1041D00002E008C8121F08C1002AFAD170477047D0
:1041E000002001E001C1121F002AFBD1704700002E
:1041F0002DE9FF4F8BB09A460F460446002606E095
:1042000025280BD052460D999047641C761C2078C7
:104210000028F5D10FB03046BDE8F08F0025A94643
:1042200001227D4900E0054314F8013F203B02FADA
:1042300003F00842F7D120782E2817D114F8010F87
:1042400045F004052A280ED06FF02F022078A0F147
:10425000300109290AD809EB890102EB410100EB81
:104260000109641CF2E757F8049B641C20786C2851
:104270000DD004DC4C2812D06A2811D104E0742837
:104280000DD07A280CD10AE045F4001507E06178DA
:1042900045F48015814202D1641C05F58015641C2B
:1042A000207869283ED006DC0028B3D063280BD0E4
:1042B000642804D136E0732810D075285CD05246AB
:1042C0000D999047761CA5E017F8040B8DF80000B7
:1042D00000208DF80100E846012003E057F8048B28
:1042E0004FF0FF3069074FF0000501D40AE06D1C64
:1042F0004D450DDA8542FADB18F805100029F6D194
:1043000006E06D1C8542FCDB18F805100029F8D189
:104310002E4404E018F8010B52460D9990476D1E8B
:10432000F8D277E000200A90C5F302504FF00A0B54
:1043300002280CD001CFC117021E71F100020CDA65
:104340000023D0EB030063EB01012D2208E0FF1DE9
:1043500027F00707F7E80201EEE72A0504D52B222C
:104360008DF82420012203E0EA070FD02022F7E78E
:104370000DF12008089218E000200A90C5F30250C1
:104380004FF00A0B022803D001CF00210022EFE7F3
:10439000FF1D27F00707F7E80201F7E75A460A9BD7
:1043A000FBF7BBFF303208F8012D50EA0102F5D1CE
:1043B000ADEB080000F1200B680701D44FF00109B4
:1043C000D94502DDA9EB0B0000E000208146002565
:1043D00006E009A85246405D0D9990476D1C761C79
:1043E00008988542F5DB04E0302052460D9990474D
:1043F000761CB9F10001A9F10109F5DC05E018F816
:10440000010B52460D999047761CBBF10001ABF1B0
:10441000010BF4DC641CFAE6092801000A68531C4D
:104420000B601070704700001CB511484FF6FF710B
:104430004FF49A7204780F4841F21C43012C4079E2
:104440000BD001280DD00C48CDE9000327234222D0
:104450006421F220FEF740FE1CBD012801D0074870
:10446000F2E700918B236421F220FEF715FC1CBDBE
:104470001404002018000020908E0008747A0008B0
:104480001CB50948017841F21C40012909D00749AF
:10449000CDE90010272342226421F220FEF71CFE02
:1044A0001CBD0349F4E7000014040020908E0008AE
:1044B000747A000810B5962000F012F8BDE810409C
:1044C00000224FF400610148FCF70FBE00080140D4
:1044D0000122D1020148FCF708BE0000000801409B
:1044E00042F2283148434FF0E021486100208861C2
:1044F00001220A610A69D30701D0D203FAD5086103
:104500008861704713B54FF6FF7301226946024870
:10451000FEF7A4FA00981CBDFC02002070B50CA0A8
:104520000D4ED0E90045012202213046FCF7DDFDA9
:104530000520FFF7D5FF094808210460456000F019
:1045400079FE3046BDE8704000220221FCF7CDBD67
:104550003504000000057D3400080140F40A002005
:1045600070B50CA00D4ED0E9004501220221304665
:10457000FCF7BBFD0520FFF7B3FF094808210460E5
:10458000456000F057FE3046BDE870400022022131
:10459000FCF7ABBD350300000005BD8100080140FC
:1045A000F40A00202DE9FE4340F2CC61DC48CDE95D
:1045B00000011E231D2203210F20FEF78DFD4FF465
:1045C000E164D84DCDE900541E231A465C212E200B
:1045D000FEF782FDCDE900541E231A465C217820A7
:1045E000FEF77AFD05F5E160CDE900041E231A46C9
:1045F0005C21C220FEF770FD4FF4006405F5616098
:10460000CDE9000420231A463821FA20FEF764FD84
:10461000FFF736FF00F06EFDC348CDE9000420230C
:104620001A46A6215E20FEF757FD4FF4BD61BF4834
:10463000CDE9000115232422AC21B420FEF74CFD66
:1046400048F2304424234FF49B752A4619460A2029
:104650000094FEF79FFA44F2BF309A23009040F294
:104660001D1219462320FEF795FAD2232A46194631
:104670000A200094FEF78EFAAD4CAE4D0C23218833
:104680002888CDE90001462232213820FEF728FC97
:1046900021882888CDE900010C234D223221822077
:1046A000FEF71EFC21882888CDE900010C23522248
:1046B0003221CC20FEF714FC208829881826009689
:1046C000CDE90110DFF870920323412199F805200C
:1046D0001F20FEF79BFC40F27237DFF86082CDE9C5
:1046E000008715231A4643214520FEF7F5FC208854
:1046F00029880096CDE9011099F80620032341216D
:104700006920FEF783FCCDE9008715231A46432173
:104710008F20FEF7E1FC208829880096CDE9011062
:1047200099F8072003234121B320FEF76FFCCDE960
:10473000008715231A464321D920FEF7CDFC208897
:1047400029880096CDE90110032340F29A227D21A9
:104750001F20FEF75BFCCDE9008715231A467F2159
:104760004520FEF7B9FC208829880096CDE9011084
:10477000032340F22B227D216920FEF747FCCDE97F
:10478000008715231A467F218F20FEF7A5FC20887D
:1047900029880096CDE9011003234FF4DE727D21B4
:1047A000B320FEF733FCCDE9008715231A467F219D
:1047B000D920FEF791FC2288298820208DE8070067
:1047C00099F802200123A5218720FEF71FFC2088ED
:1047D000298810260096CDE9011099F803200323BB
:1047E000A2214FF48870FEF711FC208829880096DA
:1047F000CDE9011099F804200123BE214FF48C70FB
:10480000FEF704FC2888009023884DA2A221F02006
:10481000FFF7BAF82888009023884BA2BE21F02029
:10482000FFF7B2F8208829880096CDE9011002230D
:104830001822DC211420FEF7E9FB21882888CDE925
:10484000000110235622DC212820FEF749FB218895
:104850002888CDE9000110233A22DC213220FEF71E
:104860003FFB21882888CDE9000110234122DC216B
:104870005720FEF735FB208829880096CDE90110E6
:1048800002232422DC217820FEF7C0FB218828881F
:10489000CDE9000110235622DC218C20FEF720FBFD
:1048A00021882888CDE9000110233A22DC219620B6
:1048B000FEF716FB21882888CDE90001102341224C
:1048C000DC21BB20FEF70CFB208829880096CDE96F
:1048D0000110DC2102232A220846FEF797FB2188DB
:1048E0002888CDE9000110235622DC21F020FEF7B4
:1048F000F7FA21882888CDE9000110233A22DC212B
:10490000FA20FEF7EDFA21882888CDE9000110236E
:104910004122DC2140F21F10FEF7E2FABDE8FE83DF
:104920009056000864640008ACB20008ACBA0008F5
:1049300022000020200000201404002094C0000861
:10494000B9A6C2CA00000000B7E7CBD9000000003A
:104950000A48012103220170002141708270322334
:10496000C3700271502242718271C27104480622E2
:1049700041708170C2700171417170471404002050
:10498000180000202DE9FE4FB54C012900D0002170
:104990006170A17801296FD16179DFF8C8B2C1F1E6
:1049A0000101B14FDFF8C482B14D61714FF6FF765E
:1049B0004FF400694FF0180A0B2830D007DC0728A5
:1049C0005AD2DFE800F05919A0A5AADCF100A649E7
:1049D00029280A88A549098872D004DC0C284CD003
:1049E0000D28D8D16EE04FF48C7B4FF0100A33289D
:1049F00067D03428CFD10AE100F064FC6079012847
:104A000006D02023CDE900B938211A46FA2090E0DB
:104A1000572338214FF48D72FA2000962AE0CDE911
:104A200000B920231A463821FA20FEF755FB3988B1
:104A3000B8F80020CDF800A0CDE90121B9464746DD
:104A4000EA7903234121B320FEF7E0FA60790128D7
:104A50000BD0B9F800103A88CDF800A0CDE90121BB
:104A6000032341216A791F2021E059234322412158
:104A70001F200096FEF710F9EEE0CDF800A0CDE97A
:104A80000112B94657466A79032341211F20FEF7D8
:104A9000BDFA607901280DD0B9F80010B8F800000F
:104AA0000097CDE90101AA79032341216920FEF78E
:104AB000ADFAD1E059238D22412169200096D9E732
:104AC00040E072E0CDF800A0CDE90112B9465746AA
:104AD000AA79032341216920FEF798FA6079012819
:104AE0000BD0B9F80010B8F800000097CDE901012B
:104AF00003234121EA79B320D9E75923D722412161
:104B0000B3200096B6E700F0DDFBFFF78DFCA3E0D5
:104B100000F0D8FB00F0B4FA9EE000F0D3FB60791F
:104B2000012809D05349CDE9001920231A46A621AE
:104B30005E20FEF7D1FA8FE0C6237E22A6215E20FA
:104B4000009697E74B49CDE9001920231A46A62184
:104B50005E20FEF7C1FA607901280AD03A88B8F8D9
:104B6000001020208DE807000123A521AA788720C6
:104B70009DE7C5239722A521872000967AE700F0BC
:104B8000A1FB6079012809D04FF4BD613A48CDE915
:104B9000000115232422AC21B420CAE7C123D82266
:104BA000AC21B420009665E754E04FF4BD61324873
:104BB000CDE9000115232422AC21B420FEF78CFAA4
:104BC0003988B8F80000CDF800A0CDE90101B94658
:104BD00057462A790123BE215846FEF717FA607915
:104BE00001280CD0B9F80010B8F800000097CDE902
:104BF00001010323EA78A2214FF4887057E7C0230C
:104C00004FF49A72A2214FF48870009632E7CDF8E3
:104C100000A0CDE90112B9465746EA780323A22144
:104C20004FF48870FEF7F2F9607901280BD0B9F8DB
:104C30000010B8F800000097CDE9010101232A799E
:104C4000BE21584633E7DC234FF49272BE2158460A
:104C500000960FE700F036FB0020A070BDE8FE8F45
:104C6000180000207472000822000020200000209C
:104C700014040020ACB20008ACBA000807480121B7
:104C80000022417181710272427205480271054A27
:104C900082F870100621C170704700001E0A0020C3
:104CA00018000020F40A002070B5FFF711FC1A4D1F
:104CB0000024287A062800D12C721848C1782929A6
:104CC00027D006DC0B2919D00C2919D00D2904D1C5
:104CD00019E0332919D0342919D0297A491C2972AD
:104CE000C170012101710E486C71AC7180F8704087
:104CF00085F80710FFF7DEFB2C7170BD0C2100E07A
:104D00000D21C170F6E70B21FBE73421F9E73321D0
:104D1000F7E7FFF7B3FFEDE71E0A002018000020B9
:104D2000F40A0020FEB5FFF7D3FB334E334C0625C3
:104D30003079A8B9A078401CC0B2A070062800D372
:104D4000A5702F4A2F492020128809888DE8070076
:104D5000A2780123A5218720FEF758F900F016FC60
:104D6000294F7879012841D1F178292926D008DC0A
:104D70004FF078000B2909D00C290FD00D2935D11F
:104D800014E0332922D0342930D128E06179491C3C
:104D9000C9B26171782929D3607127E0A179491CD2
:104DA000C9B2A171782921D3A0711FE0E179491C12
:104DB000C9B2E171782919D3E07117E0A078401CDD
:104DC000C0B2A070062811D3A5700FE0E078401D96
:104DD000C0B2E070642809D36420E07006E0207956
:104DE000401CC0B22071062800D32571FFF762FB7A
:104DF00000203871FEBD00001800002014040020BF
:104E000022000020200000201E0A0020FEB5FFF72F
:104E10005FFB324E324C00253079A8B9A078401E95
:104E200010F0FF00A07000D1A5702E4A2E4920205E
:104E3000128809888DE80700A2780123A521872020
:104E4000FEF7E4F800F0A2FB284FB879012841D121
:104E5000F178292926D008DC4FF00A000B2909D067
:104E60000C290FD00D2935D114E0332922D0342953
:104E700030D128E06179491EC9B261710A2929D867
:104E8000607127E0A179491EC9B2A1710A2921D810
:104E9000A0711FE0E179491EC9B2E1710A2919D850
:104EA000E07117E0A078401E10F0FF00A07011D153
:104EB000A5700FE0E078401FC0B2E0701E2809D84E
:104EC0001E20E07006E02079401E10F0FF002071E7
:104ED00000D12571FFF7EEFA3D71FEBD18000020EC
:104EE0001404002022000020200000201E0A0020C0
:104EF00070B5FFF7EDFA1E4C607A401CC0B26072CC
:104F0000022803D1FFF7BAFE00F040FBE079012848
:104F100029D1184A1849D378062B24D2DFE803F0A8
:104F2000230305101D1F0B211AE00878C0F10100B2
:104F30000870FFF7A5FAFFF7A1FE00F027FB12E0CB
:104F40004878C0F101004870FFF798FE00F01EFBA2
:104F500000F0D0F800F0C0F805E0292100E033218E
:104F6000D1706071A071FFF7A5FA0020207170BDAB
:104F70001E0A00201800002014040020054801210A
:104F80000170417181710021C171417041800172D4
:104F9000417270471E0A00202DE9F047354E642407
:104FA000354D31794FF400784FF48079012917D1CC
:104FB00041462846FCF794F8074649462846FCF740
:104FC0008FF847EA400780212846FCF789F847EA2E
:104FD000800740212846FCF783F847EAC000C0B2AA
:104FE000072806D00B2808D00D280AD00E283ED15D
:104FF0000BE0BDE8F047FFF757BEBDE8F047FFF70D
:1050000091BEBDE8F047FFF701BF41462846FCF7D7
:1050100067F8074649462846FCF762F847EA400722
:1050200080212846FCF75CF847EA800740212846A3
:10503000FCF756F847EAC000C7B2641EE4B20A2083
:10504000FFF74EFA0E2F04D02CB1BDE8F047FFF762
:105050004FBF002CD9D109480079002807D17078BA
:10506000C0F101007070BDE8F04700F015BABDE86E
:10507000F08700001E0A00200010014018000020E8
:105080001CB511484FF6FF714FF4006243780F488A
:10509000012B40790BD001280DD00D48CDE900023D
:1050A00020231A46A6211846FEF716F81CBD012833
:1050B00001D00848F2E70091C6234022A621202013
:1050C000FDF7EAFD1CBD00001404002018000020BC
:1050D000ACAA0008ACA2000804484FF48051427802
:1050E000034802B10122FCF700B8000014040020BC
:1050F000000801401CB5094841784FF400600129BF
:1051000009D00749CDE9001020231A46A6211846E8
:10511000FDF7E2FF1CBD0349F4E700001404002082
:10512000ACAA0008ACA20008FBF7F2FFFEF729FDCD
:10513000FEF708F9FEF7D0F8FEF7F0FAFEF778F878
:10514000FEF708FBFEF7FAF9FEF7B2F9FEF7D4F91D
:10515000FEF7A0FAFEF7C0FAFEF768FA2348FBF75D
:1051600013FA2348FCF716FF2248FCF713FF2248E6
:10517000FCF710FF002202212048FBF7B6FF204871
:105180000024C4704470011D01221E48FDF734FC48
:10519000FDF7C2FDFEF7E7FF4B22C8231146322080
:1051A00000F072F8462000F057F84FF6FF70FDF758
:1051B000C5FC15A0FEF7D8FFFFF7D2F9FFF7DEFE1A
:1051C000FFF7C6FBFFF7EEF91848012100F86F4F13
:1051D000174C4170FEF7DCFA2179E078FFF7D2FB3B
:1051E000FFF7DAFE00F0E8F8F4E7000030000020F6
:1051F000240200206C020020B402002000080140BC
:10520000280A0020440300203D3D3D3D3D3D3D3DFD
:105210003D20636F6465207374617274203D3D3D71
:105220003D3D3D3D3D3D200D0A000000F40A0020BB
:10523000180000200A4610B501464FF47A7305485D
:10524000FDF70CFC034800680168C9434906FBD41C
:1052500010BD00004403002010B5040008480BD026
:10526000FCF798FEC4F16400532148430A2190FBE7
:10527000F1F00449488010BDBDE81040FCF7C0BE05
:10528000B40200202400002070B50C4CB4FBF3F3F2
:105290000B4C5B1E2568EB6258436425B0FBF5F0B0
:1052A0002668B0635943B1FBF5F02168C8635A43DF
:1052B000B2FBF5F02168086470BD000040420F00A9
:1052C000DC010020FEB5FFF7DBF8FFF713FF4FF41A
:1052D00000643348CDE9000420231A463821FA201F
:1052E000FDF7FAFE2F48CDE9000420231A46A62137
:1052F0005E20FDF7F1FE4FF4BD612B48CDE90001C2
:1053000015232422AC21B420FDF7E6FE274C284DBE
:105310001827208829880097CDE90110254E0323FE
:10532000412172791F20FDF771FE2088298800979E
:10533000CDE90110B279032341216920FDF766FE12
:10534000208829880097CDE90110F27903234121B3
:10535000B320FDF75BFE2288298820208DE8070016
:10536000B2780123A5218720FDF750FE20882988E7
:1053700010270097CDE90110F2780323A2214FF402
:105380008870FDF743FE208829880097CDE9011039
:1053900032790123BE214FF48C70FDF737FEFEBD3C
:1053A00074720008ACB20008ACBA000822000020F9
:1053B00020000020140400202DE9FE432F48304C2B
:1053C0004FF00008007918B184F87080BDE8FE83C2
:1053D00094F86F000128F9D194F870000128F5D1F4
:1053E000FFF79CF8274D284E18272888318800970A
:1053F000CDE9011014F8602F03237D211F20FDF754
:1054000005FE288831880097CDE9011062780323D2
:105410007D216920FDF7FAFD288831880097CDE9C4
:105420000110A27803237D21B320FDF7EFFD28882A
:105430000C274FF630660097CDE901600123134A2F
:10544000DF213C20FDF768FE28880097CDE9016048
:1054500001230F4ADF21A020FDF75EFE2888009778
:10546000CDE9016001230B4ADF214FF48270FDF783
:1054700053FE00F031F884F80F80A7E718000020F1
:10548000F40A00202200002020000020CDCC44415E
:1054900000000A42CDCC9D421CB50D484078012841
:1054A00009D04FF6FF70009021234B2203212D20BD
:1054B000FDF7F2FB1CBD4FF4E1610648CDE90001A8
:1054C0001E231A4603212D20FDF706FE1CBD0000F9
:1054D0001E0A00205C5D00082DE9FC47234FDFF821
:1054E0009090244D97F8601099F805004FF01E0336
:1054F00081424FF4E16405F5E1661A464FF05C0124
:105500004FF02E0002D3CDE9005401E0CDE9006454
:10551000FDF7E2FD97F8610099F80610B846884259
:105520004FF01E034F461A464FF05C014FF07800D3
:1055300002D3CDE9005401E0CDE90064FDF7CCFDD4
:1055400098F86200F9794FF01E0388421A464FF02E
:105550005C014FF0C20002D3CDE9005401E0CDE977
:105560000064FDF7B9FDBDE8FC870000F40A0020E7
:105570001404002064640008034801780029FCD06A
:1055800000210170704700001E000020F0B52E4D74
:105590002E4F85B0002405F8704F012202213846B5
:1055A000FBF7A3FD0520FEF79BFF35208DF80000DB
:1055B00010208DF801008DF8044005208DF80500BD
:1055C0000A208DF8060022488DF802408DF803402D
:1055D0008DF8074081780279012641EA02118DF8A1
:1055E00008108DF809408DF80A608DF80B4001789D
:1055F000C27841EA42018DF80C1081798DF80D10C6
:1056000041798DF80E108DF80F40C0798DF810009B
:1056100011216846FDF7F2FD010A8DF811108DF891
:105620001200132269460848FAF7B0FD1321064814
:10563000FFF700FE002202213846FBF756FDFFF778
:1056400041FE2E7005B0F0BDF40A002000080140B4
:1056500014040020010202030405060708090A0BCE
:105660000C0D0E0F101001020203040506070809B5
:105670000A0B0C0D0E0F10100000000000000000BF
:1056800001020304060708090000000001020304E8
:10569000FFFFFFFFFFFFFFFFFFFFFFFFFFFFFFFF1A
:1056A000FFFEFFFFFFFFFFFFFFFFFFFFFFFFFFFF0B
:1056B000FFDFFFDFF7FFFFFFFFDFFFFFF7FFFFFF6A
:1056C000FFFFFFFFFFFFFFFFFFFFFFFFFFFFFFFFEA
:1056D000FFFFFFFFFFFFFFFFFFFFFFFFFFFFFFFFDA
:1056E000FFFFFFFFFFFFFFFFF7FFF7FFFFFFFFFEDB
:1056F000F7FEFFDFFFDFFFFFFFFFFFFFFFFFFFFF03
:10570000FFFFFFFFFFFFFFFFFFFFFFFFFFFFFFFFA9
:10571000FFFFFFFFFFFFFFFFFFFFFFFFFFFFFFFF99
:10572000FFFFFFFFFFFEFFDFFFFFFFFFFFFFFFFFAA
:10573000FFFFFFFFFFFFFFFFFFFFFFFFFFFFFFFF79
:10574000FFFFFFFFFFFFFFFFFFFFFFFFFFFFFFFF69
:10575000FFFFFFFFFFFFFFFFFFDFFFDFFFFFFFFF99
:10576000FFFFFFDFFFFFFFFFFFFFFFDFFFFFFFFF89
:10577000FFFFFFFFFFFFFFFFFFFFFFFFFFFFFFFF39
:10578000FFFFFFFFFFFFFFFFFFFFFFFFFFFFFFFF29
:10579000FFFFFFDFFFFFFFFFFFFFFFDFFFDEFFFF7A
:1057A000FFFFF7FFF7FEFFFFFFFFFFFFFFFFFFFF1A
:1057B000FFFFFFFFFFFFFFFFFFFFFFFFFFFFFFFFF9
:1057C000FFFFFFFFFFFFFFFFFFDFFFFFFFFFFFFF09
:1057D000FFFFFEBDE31AD1B9D999DA19EC3BFF9F5F
:1057E000FFFFFFFFFFFFFFFFFFFFFFFFFFFFFFFFC9
:1057F000FFFFFFFFFFFFFFFFFFFFFFFFFFFFFFFFB9
:10580000FFFFFFFFFFFFF7FFFF7FFDDEE1F8D1D9CC
:10581000D279F4BDDAD8D978D278FF7FFFFFFFFFC5
:10582000FFFFFFFFFFFFFFFFFFFFFFFFFFFFFFFF88
:10583000FFFFFFFFFFFFFFFFF7FFFFFFFFFFFFFE81
:10584000FFFFF5BDD1D6D219F65DFFFFFFDFFFFEEA
:10585000FD3DC9B8EBFCFFFFFFFFFFFFFFFFFFFFB0
:10586000FFFFFFFFFFFFFFFFFFFFFFFFFFFFFFFF48
:10587000FFFFFFDFFFFFFFDEFFFEED9CD998DA1987
:10588000FEDDFFDFFFFEFFFFFFFFFFFFE359D999BA
:10589000FFDFFFFFFFFFFFFFFFFFFFFFFFFFFFFF38
:1058A000FFFFFFFFFFFFFFFFFFFFFFFFFFFEFFFF09
:1058B000FFFFEDBDD1F8D218FE9DFFFFFFFFFFDF18
:1058C000F7FFFFFFFFDFEC9CD1B8E6DCFFDFFFFF57
:1058D000FFFFFFFFFFFFFFFFFFFFFFFFFFFFFFFFD8
:1058E000FFFFFFFFFFFFFFDFFFFFFFFEF5DDD2D968
:1058F000FEDEFFFFFFFFFD9EFEFFFFDFFFFEFFFF5F
:10590000EC5BD1B7EEFCFFFFFFFFFFFFFFFFFFFFE8
:10591000FFFFFFFFF7FEFFFFFFFFFFFFFFFFFFFEA1
:10592000FFDFFFFFFFFFFFFFFFFFFFDFFFFFDC3AAF
:10593000D1B8ECFBFFFFFFFEF77FE23AD298FFDF22
:10594000FFFFFFFFFFFFFFFFFFFFFFFFFFFFFFFF67
:10595000FFFFFFFFFFFFFFFEFFFFEE7EEDBDFFDF5E
:10596000FFFFFFFFFFFEE41AE198DAB9FF7EFFFFB9
:10597000FF9FE2B9D998FDDDFFFFFFFFFFFFFFFFAB
:10598000FFFFFFFFFFFFFFFFFFFFFFFFFFFFF7FF2F
:10599000FFFFEDDCD1D9DB59FFFFFFFFFFFEEC1B62
:1059A000D999DAF7FF9FFFFFF79FEA9BD1F8E43A16
:1059B000FFFFFFFFFFFFFFFFFFFFFFFFFFFFFFFFF7
:1059C000FFFFFFFFFFFFF7FFFF7FFDBDD1B8E1F84D
:1059D000F6BFFFFFF7FEEC1AC9B8EABAFF7FFFFF78
:1059E000FFBFD2F9D1B7E3FBFFFEFFFFFFFFFFFFD1
:1059F000FFFFFFFFFFFFFFFFFFFFFFFFFFFFFFFEB8
:105A0000FFFFFDBDD1D5D1F8FEBEFFFFFFFFE3FADA
:105A1000E19AE2B8FFBEFFFFFFBFE399C9D8F3FBED
:105A2000FFDFFFFEFFFFFFFFFFFFFFFFFFFFFFFFA7
:105A3000FFFFFFFFFFFEFFFFFFFFF65DE197D219BB
:105A4000F6DCFFFFFFFFE3FAD1B9DAD8FFBFFFDFD3
:105A5000FFFFFFBFDBF8F4BBFFDFFFFFFFFFFFFF30
:105A6000FFFFFFFFFFFFFFFFFFFFF7FFFFDFFFDF8E
:105A7000FFFFFFFFDAFAC9D7FEBEFFFFF7FFFE5FA9
:105A8000D9B7D2DAFF7FFFDEFFFFFFFFF7FFFF9FEF
:105A9000FFFFFFDFFFDFF7FEFFFFFFFFFFFFFFFF5F
:105AA000FFFFFFFFFFFEFFFFFFFFF7DFFF3FD19884
:105AB000EBFBFFFFFFFFFFFEF73FEC1AF7BEFFFF18
:105AC000F79FE439FEDEF7FFFFFFF7FEF7FFFFDF8A
:105AD000FFFFFFFFFFFFFFFFFFFFFFFFFFFFFFFED7
